:020000001AC024
:10000200FECFFDCFFCCFFBCF71C045C0F8CFF7CFFD
:10001200F6CFF5CFF4CFF3CFF2CFF1CFF0CFEFCFD2
:10002200EECFEDCF6400C80090012003F8FFFCFF83
:10003200FEFFFFFFF894EE27ECBBE5BF8DE0A2E0E8
:10004200ED938A95E9F780E8A0E6ED938A95E9F7C2
:10005200E0E0E3BBE4BBE5BBEFEDEDBFC0EA76C099
:10006200AA9358D300E0AA81B0E0A050B04047D391
:100072001E2F00E0083060F4E02FA12FF3D2E170D0
:1000820011F4929801C0929A949A94980F5FF2CFC9
:10009200939A9398C1C0FCD03DD308D1E0E0F0E040
:1000A20060E271E481D2C2D11E2F00E0E3E8E2BF38
:1000B200959A1030C1F0A12FBB27EAE0F0E0FCD204
:1000C200AE2FCEDFE02FA8E0CDD2E8BBA1E0B0E0BA
:1000D2000AD1E0E0E8BBA12FB0E0EAE0F0E0E7D22D
:1000E2001E2F0F5FE6CF0991199122C0D1D0E7E60A
:1000F200EDBDEAE6ECBDA0E092D0E1D0D7D0E0E0E1
:10010200F0E06AE774E482D209F008F411C0CED0BC
:10011200E0E0F0E060E875E4F5D1D1D0E091A9002B
:10012200F091AA006091AB007091AC004CD1C7D0A5
:10013200E991EFBFF991E991B991A99199918991C9
:1001420079916991F990199009901895E0E8E6BDC6
:10015200E0E0E6BDEABBEBBBEFE0E7BBE0E0E8BB1B
:10016200ECE3E1BBE0E0E2BBE0BFE3E0E3BFE3E8F6
:10017200E2BFE0E0E6BFECBFEFBDE4E0EEBDE5E8E4
:10018200EDBDEEEEECBDE0E0E5BDE4BDEBBDEABDEC
:10019200E9BDE8BDE2E8E9BFE0E0EBBFE5BFEDB9EC
:1001A200EAB9E0E8E8B9E0E0E1B9A7D07894FFCF96
:1001B200FFCFAA931A93A1D0E03011F4E0E065C01A
:1001C200E981E03061F0A5E5DED010E0A981ED9192
:1001D200A983AE2FD8D01F5F1830C0F302C0ACEC99
:1001E200D2D0E1E052C0AA9395D2AA81E2DFE030F8
:1001F20011F4E0E011C0AEEBC6D010E000EA0F93BC
:100202000F5FBCD0AF91EC931F5F1930C0F3E0EAEF
:10021200EA93A9E0C2D033D280D223960895AA935A
:100222001A93A981E0DFE03011F452D02EC0E091A0
:10023200A400E295EF70E695E3701E2FA981B9DF65
:10024200E03011F445D021C0A4E49DD0E12FA6E214
:10025200B0E043D051D247D0A981C5DFE03011F4DC
:1002620037D013C04AD0E12FAEE2B0E036D040D250
:10027200A091A000B091A100EA23FB23FBD10FD1F2
:10028200A0E0B0E080E89DE38FD118812296089526
:100292000A921A92FA926A937A938A939A93AA93F7
:1002A200BA93EA93FA93EFB7EA930895A091A9005B
:1002B200B091AA008091AB009091AC000895E093B8
:1002C200A900F093AA006093AB007093AC0008956C
:1002D200E0E0FCE36CE176EC0895F0E0EE0FFF1F46
:1002E200EA0FFB1F0895109639F080ED97E0019711
:1002F200F1F7A8951197C9F70895EE27C498BC9A0B
:1003020080EC93E00197F1F7BC9885E28A95F1F7CA
:10031200B49B08958BEC8A95F1F7B49BE1E08CE0F5
:1003220093E00197F1F70895BC9A85E08A95F1F779
:10033200BC988DE18A95F1F78894B4990894E79571
:1003420085ED8A95F1F70895E894BC9A85E08A953F
:10035200F1F770FDBC9883E28A95F1F7B49903C076
:1003620070FF03C0089570FF089588EC8A95F1F735
:10037200BC988DE08A95F1F76894089568E0D4DF1F
:100382006A95E9F708957A2F68E0EE27DDDF26F413
:1003920077956A95D9F7E3950895EE27AA2389F010
:1003A2008A2F68E1A881BB2798E0FD917F2F7E27E5
:1003B200779508F4E627E795F6959A95B9F78A9521
:1003C20099F72196089530976040704009F070586F
:1003D2000895552342F4503811F4E0FF04C03196D9
:1003E200691F791F6BF050E8572711F45F93CAC059
:1003F2005F3F31F0660F000C57956795752F089592
:100402005F9300200AF0CAC0C3C050E8192E15221B
:10041200880F991F9527550F879550E8072E0522BB
:10042200660F771F7527550F67950895689401C069
:10043200E8945F93F2DF703818F07F3F08F4A2C0AF
:1004420056E1571BAAF4519558300EF4593030F04A
:10045200EFEFFFEF6FEF7FE777F91AC077275523AA
:10046200B9F0EE0FFF1F661F771F5A95D1F710C024
:100472007727583028F0EF2FF62F672F5850F9CFF3
:10048200552331F076956795F795E7955A95D1F70B
:1004920000200AF4DFD05F910895689401C0E894C7
:1004A200309760407040B1F0002426F0772312F4B8
:1004B2000094D0D0172E7EE1112032F07A95EE0F03
:1004C200FF1F661F111CF9CFEF2FF62F612D5F93CF
:1004D2008ADF5F9108954F93AF01FD01DA01AB010D
:1004E200BC01CA01402D012C142E4F910895EA0F30
:1004F200FB1F681F0895E095F0956095EF5FFF4F31
:100502006F4F08955F9381DF903849F150E81526C7
:10051200703821F1572F591B2BF112F4DCDFFACF7F
:10052200583118F0AA27BB278827583028F0AB2F5C
:10053200B82F88275850F9CF552329F08695B795BB
:10054200A7955A95D9F7502D512572F0D0DF38F47E
:100552006795F795E795739513F420C0BCDF43DFE9
:100562005F910895D8F7FBCFEA1BFB0B680B51F0A4
:1005720010F40094C0DF662392F3EE0FFF1F661F94
:100582007A95CBF7EE27FF27662777275F910895A5
:10059200EFEFFFEF6FE77FEF5F910895EFEFFFEF70
:1005A2006FE77FE75F9108955F932FDF703851F314
:1005B200903841F301240894791F23F41CF300209E
:1005C2003AF3ECCF3F934F93112433274427552717
:1005D20098E1330F441F551FEE1FFF1F661F30F4B3
:1005E2003A0F4B1F581FE11DF11D611D9A9589F7A6
:1005F2004F913F9166232AF0550FEE1FFF1F661F92
:1006020002C07395E3F2E5DE5F91089599239AF0B3
:10061200772342F0971748F029F4AE17BF078607F1
:1006220020F031F09894889408959894089408954D
:100632001894889408957723C2F7971798F3A9F727
:10064200EA17FB07680788F399F3ECCFF195E19578
:10065200F0400895F09560957095E195FF4F6F4FCA
:100662007F4F0895EE230E2EEA2F19F0E6950A9495
:10067200E9F708956F2F660F660B762F0895EE2324
:10068200E1E009F0EE2708950024112490E1AA0F79
:10069200BB1F001C111C0E1A1F0A18F40E0E1F1E7F
:1006A20001C0A1609A9599F7FD01D001089512D079
:1006B200EBDF0EF4CBDF0895E894B7FF04C0A095FA
:1006C200B09511966894F7FDC1DFDEDFFD010EF4EF
:1006D200BDDF0895E894F7FF02C0B8DF6894B7FF62
:1006E20006C0A095B095119600F8039400FA0895FB
:1006F2000590F491E02D0895A591B4910895E199A2
:10070200FECFFF93FFB7F894AEBBE09AEDB3FFBF05
:10071200FF9108951A930A93089519810881089503
:00000001FF
