:0C0000002DC0FECFFDCFFCCFFBCFFACF10
:10000C00F9CFF8CFF7CFF6CFF5CFF4CFF3CFF2CFC0
:10001C00F1CFF0CFEFCFEECFEDCF6400C800900161
:10002C002003F8FFFCFFFEFFFFFF000014774C4598
:10003C00278584570405EF00010804020100030022
:10004C0036000B00890038000400940044000000C6
:10005C00F894EE27ECBBE5BF8DE0A2E0ED938A951A
:10006C00E9F780E8A0E6ED938A95E9F7E8E4F0E09B
:10007C0085919591009761F0A591B591059015909A
:10008C00BF01F00105900D920197E1F7FB01F0CF54
:10009C00E0E0E3BBE4BBE5BBEFEDEDBFC0E87BC04C
:1000AC00AA9398D300E0EB81E7571081EA811E27D1
:1000BC0000E0083060F4E02FA12F38D3E17011F488
:1000CC00919801C0919A929A92980F5FF2CFD89A18
:1000DC00D89883D36AC17ED300E01091930000E0DE
:1000EC00083060F4E02FA12F21D3E17011F4919826
:1000FC0001C0919A929A92980F5FF2CFD89AD898A1
:10010C00099119910895BA93AA931A9310E0AA81B0
:10011C00AA2342F4E0DFE2E0E8BBA1E0B0E047D183
:10012C00E0E0E8BB113079F4AA81AA2322F4E9813A
:10013C00FA81F0D201C0E981DF01EAE0F0E020D3DE
:10014C00EA93A4E00EC0AA81AA2322F4E981FA81E1
:10015C00E1D201C0E981DF01EAE0F0E011D3EA93DA
:10016C00A0E09EDFA4E9A10FEC91E8BBA1E0B0E018
:10017C001ED1E0E0E8BBA981BA81EAE0F0E0FBD255
:10018C00E983FA831F5F309711F0133008F001C038
:10019C00C9CF18818FC0E0E8E6BDE0E0E6BDE1E044
:1001AC00EABBE0E0EBBBEFE0E7BBE0E0E8BBEEE096
:1001BC00E1BBE0E0E2BBE0BFE3BFE2BFE6BFECBF08
:1001CC00EFBDEEBDEDBDECBDE5BDE4BDEBBDEABDE7
:1001DC00E9BDE8BDE9BFEBBFE5BFEDB9EAB9E0E8C1
:1001EC00E8B9E0E0E1B97894E0E0EA93E9ECEA936D
:1001FC00E3E6EA93A3E0A1D02497939A332029F461
:10020C00A0E05AD0E1E03E2E04C0A0E06AD0DDD2DE
:10021C003324D6D2E0E0F0E06AE774E45BD209F074
:10022C0008F408C0E0E0F0E060E875E4CFD1CDD28E
:10023C002ED1CBD2C5D2E0E0F0E060E271E418D26E
:10024C005BD1DF0160DF2496D7CFFFCFAA931A933F
:10025C00B8D0E03011F4E0E06DC0E981E03061F03D
:10026C00A5E5F5D010E0A981ED91A983AE2FEFD0D3
:10027C001F5F1830C0F302C0ACECE9D0E1E05AC00B
:10028C00AA93A8D2AA81E2DFE03011F4E0E011C019
:10029C00AEEBDDD010E000E80F930F5FD3D0AF9141
:1002AC00EC931F5F1930C0F3E0E8EA93A9E0D9D0D2
:1002BC004AD293D223960895AA93A881E1DFE03025
:1002CC0019F4E0E0F0E00BC0A881C0DFE03019F4D5
:1002DC00E0E0F0E004C0A4E4BAD0E1E0F0E0219664
:1002EC000895AA931A93E0918400E295EF70E69535
:1002FC00E3701E2FA981C4DFE03029F4E0E0FCE3B9
:10030C006CE176EC17C05DD0E12FAEE2B0E0F0E02E
:10031C00EE0FFF1FEA0FFB1F4FD2A0918000B09190
:10032C008100EA23FB230AD21ED1A0E0B0E080E8D2
:10033C009DE39ED1188122960895AA93AB8186DF06
:10034C00E03011F4E0E031C0E881E295E07FEE0F9F
:10035C00EF61E883AEE47BD0A98179D0AA8177D014
:10036C00A88175D0AB818CDFE03011F4E0E01DC0CA
:10037C00A0918300EA81EA1751F4A0918200E981EF
:10038C00EA1729F4A0918400E881EA1711F0E0E063
:10039C000CC0AB815BDFE03011F4E0E006C0A8E4F8
:1003AC0056D0AFE0B0E003D00CD024960895109650
:1003BC0039F080ED97E00197F1F7A8951197C9F7FF
:1003CC000895EE2796988E9A80EC93E00197F1F7BA
:1003DC008E9885E28A95F1F7869B08958BEC8A9529
:1003EC00F1F7869BE1E08CE093E00197F1F708953B
:1003FC008E9A85E08A95F1F78E988DE18A95F1F7C2
:10040C00889486990894E79585ED8A95F1F7089577
:10041C00E8948E9A85E08A95F1F770FD8E9883E2C8
:10042C008A95F1F7869903C070FF03C0089570FF99
:10043C00089588EC8A95F1F78E988DE08A95F1F7FE
:10044C006894089568E0D4DF6A95E9F708957A2FE7
:10045C0068E0EE27DDDF26F477956A95D9F7E3950A
:10046C000895EE27AA2389F08A2F68E1A881BB277B
:10047C0098E0FD917F2F7E27779508F4E627E79586
:10048C00F6959A95B9F78A9599F72196089530972C
:10049C006040704009F070580895552342F450386C
:1004AC0011F4E0FF04C03196691F791F6BF050E81E
:1004BC00572711F45F93CAC05F3F31F0660F000CF1
:1004CC0057956795752F08955F9300200AF0CAC061
:1004DC00C3C050E8192E1522880F991F9527550F68
:1004EC00879550E8072E0522660F771F7527550F45
:1004FC0067950895689401C0E8945F93F2DF7038B3
:10050C0018F07F3F08F4A2C056E1571BAAF451958E
:10051C0058300EF4593030F0EFEFFFEF6FEF7FE70C
:10052C0077F91AC077275523B9F0EE0FFF1F661F16
:10053C00771F5A95D1F710C07727583028F0EF2F36
:10054C00F62F672F5850F9CF552331F076956795D4
:10055C00F795E7955A95D1F700200AF4DFD05F9113
:10056C000895689401C0E894309760407040B1F0F1
:10057C00002426F0772312F40094D0D0172E7EE1BD
:10058C00112032F07A95EE0FFF1F661F111CF9CF68
:10059C00EF2FF62F612D5F938ADF5F9108954F93B4
:1005AC00AF01FD01DA01AB01BC01CA01402D012CE8
:1005BC00142E4F910895EA0FFB1F681F0895E095C4
:1005CC00F0956095EF5FFF4F6F4F08955F9381DF5C
:1005DC00903849F150E81526703821F1572F591BE6
:1005EC002BF112F4DCDFFACF583118F0AA27BB2715
:1005FC008827583028F0AB2FB82F88275850F9CFC0
:10060C00552329F08695B795A7955A95D9F7502D6E
:10061C00512572F0D0DF38F46795F795E79573950F
:10062C0013F420C0BCDF43DF5F910895D8F7FBCFF4
:10063C00EA1BFB0B680B51F010F40094C0DF66232F
:10064C0092F3EE0FFF1F661F7A95CBF7EE27FF276D
:10065C00662777275F910895EFEFFFEF6FE77FEF46
:10066C005F910895EFEFFFEF6FE77FE75F910895DC
:10067C005F932FDF703851F3903841F301240894C5
:10068C00791F23F41CF300203AF3ECCF3F934F93E4
:10069C00112433274427552798E1330F441F551F46
:1006AC00EE1FFF1F661F30F43A0F4B1F581FE11D42
:1006BC00F11D611D9A9589F74F913F9166232AF0A0
:1006CC00550FEE1FFF1F661F02C07395E3F2E5DEA8
:1006DC005F91089599239AF0772342F0971748F089
:1006EC0029F4AE17BF07860720F031F09894889450
:1006FC0008959894089408951894889408957723ED
:10070C00C2F7971798F3A9F7EA17FB07680788F35E
:10071C0099F3ECCFF195E195F0400895F095609543
:10072C007095E195FF4F6F4F7F4F0895EE230E2E7E
:10073C00EA2F19F0E6950A94E9F708956F2F660FE2
:10074C00660B762F0895EE23E1E009F0EE2708956D
:10075C000024112490E1AA0FBB1F001C111C0E1ABF
:10076C001F0A18F40E0E1F1E01C0A1609A9599F76E
:10077C00FD01D001089512D0EBDF0EF4CBDF08950C
:10078C00E894B7FF04C0A095B09511966894F7FD56
:10079C00C1DFDEDFFD010EF4BDDF0895E894F7FF45
:1007AC0002C0B8DF6894B7FF06C0A095B09511964B
:1007BC0000F8039400FA08950590F491E02D089543
:1007CC00A881B9818A819B810895E883F9836A8322
:1007DC007B8308951A930A930895198108810895CB
:00000001FF
